{
  "contractName": "RideSharing",
  "abi": [
    {
      "constant": true,
      "inputs": [
        {
          "name": "",
          "type": "uint256"
        }
      ],
      "name": "listDrivers",
      "outputs": [
        {
          "name": "index",
          "type": "uint256"
        },
        {
          "name": "addr",
          "type": "address"
        },
        {
          "name": "phoneNumber",
          "type": "string"
        },
        {
          "name": "vehicleType",
          "type": "uint8"
        },
        {
          "name": "vehicleDetail",
          "type": "string"
        },
        {
          "name": "position",
          "type": "string"
        },
        {
          "name": "pricePerKm",
          "type": "uint256"
        },
        {
          "name": "state",
          "type": "uint8"
        },
        {
          "components": [
            {
              "name": "riderAddress",
              "type": "string"
            },
            {
              "name": "phoneNumber",
              "type": "string"
            },
            {
              "name": "position",
              "type": "string"
            },
            {
              "name": "destination",
              "type": "string"
            },
            {
              "components": [
                {
                  "name": "lat",
                  "type": "string"
                },
                {
                  "name": "lng",
                  "type": "string"
                }
              ],
              "name": "geometry",
              "type": "tuple"
            }
          ],
          "name": "rider",
          "type": "tuple"
        },
        {
          "components": [
            {
              "name": "lat",
              "type": "string"
            },
            {
              "name": "lng",
              "type": "string"
            }
          ],
          "name": "geometry",
          "type": "tuple"
        }
      ],
      "payable": false,
      "stateMutability": "view",
      "type": "function"
    },
    {
      "inputs": [],
      "payable": false,
      "stateMutability": "nonpayable",
      "type": "constructor"
    },
    {
      "anonymous": false,
      "inputs": [
        {
          "indexed": false,
          "name": "driverIndex",
          "type": "uint256"
        },
        {
          "indexed": false,
          "name": "driverAddress",
          "type": "address"
        },
        {
          "indexed": false,
          "name": "riderAddress",
          "type": "string"
        },
        {
          "indexed": false,
          "name": "riderPhoneNumber",
          "type": "string"
        },
        {
          "indexed": false,
          "name": "riderPosition",
          "type": "string"
        },
        {
          "indexed": false,
          "name": "riderDestination",
          "type": "string"
        },
        {
          "indexed": false,
          "name": "lat",
          "type": "string"
        },
        {
          "indexed": false,
          "name": "lng",
          "type": "string"
        }
      ],
      "name": "NewRide",
      "type": "event"
    },
    {
      "constant": true,
      "inputs": [],
      "name": "getListDrivers",
      "outputs": [
        {
          "components": [
            {
              "name": "index",
              "type": "uint256"
            },
            {
              "name": "addr",
              "type": "address"
            },
            {
              "name": "phoneNumber",
              "type": "string"
            },
            {
              "name": "vehicleType",
              "type": "uint8"
            },
            {
              "name": "vehicleDetail",
              "type": "string"
            },
            {
              "name": "position",
              "type": "string"
            },
            {
              "name": "pricePerKm",
              "type": "uint256"
            },
            {
              "name": "state",
              "type": "uint8"
            },
            {
              "components": [
                {
                  "name": "riderAddress",
                  "type": "string"
                },
                {
                  "name": "phoneNumber",
                  "type": "string"
                },
                {
                  "name": "position",
                  "type": "string"
                },
                {
                  "name": "destination",
                  "type": "string"
                },
                {
                  "components": [
                    {
                      "name": "lat",
                      "type": "string"
                    },
                    {
                      "name": "lng",
                      "type": "string"
                    }
                  ],
                  "name": "geometry",
                  "type": "tuple"
                }
              ],
              "name": "rider",
              "type": "tuple"
            },
            {
              "components": [
                {
                  "name": "lat",
                  "type": "string"
                },
                {
                  "name": "lng",
                  "type": "string"
                }
              ],
              "name": "geometry",
              "type": "tuple"
            }
          ],
          "name": "",
          "type": "tuple[]"
        }
      ],
      "payable": false,
      "stateMutability": "view",
      "type": "function"
    },
    {
      "constant": false,
      "inputs": [
        {
          "name": "addr",
          "type": "address"
        },
        {
          "name": "phoneNumber",
          "type": "string"
        },
        {
          "name": "vehicleType",
          "type": "uint8"
        },
        {
          "name": "vehicleDetail",
          "type": "string"
        },
        {
          "name": "position",
          "type": "string"
        },
        {
          "name": "pricePerKm",
          "type": "uint256"
        },
        {
          "name": "lat",
          "type": "string"
        },
        {
          "name": "lng",
          "type": "string"
        }
      ],
      "name": "registerDrive",
      "outputs": [],
      "payable": false,
      "stateMutability": "nonpayable",
      "type": "function"
    },
    {
      "constant": false,
      "inputs": [
        {
          "name": "driverIndex",
          "type": "uint256"
        },
        {
          "name": "driverAddress",
          "type": "address"
        },
        {
          "name": "riderAddress",
          "type": "string"
        },
        {
          "name": "riderPhoneNumber",
          "type": "string"
        },
        {
          "name": "riderPosition",
          "type": "string"
        },
        {
          "name": "riderDestination",
          "type": "string"
        },
        {
          "name": "lat",
          "type": "string"
        },
        {
          "name": "lng",
          "type": "string"
        }
      ],
      "name": "processRide",
      "outputs": [],
      "payable": false,
      "stateMutability": "nonpayable",
      "type": "function"
    },
    {
      "constant": false,
      "inputs": [
        {
          "name": "index",
          "type": "uint256"
        }
      ],
      "name": "removeDriverByIndex",
      "outputs": [],
      "payable": false,
      "stateMutability": "nonpayable",
      "type": "function"
    },
    {
      "constant": false,
      "inputs": [
        {
          "name": "driverIndex",
          "type": "uint256"
        }
      ],
      "name": "confirmRide",
      "outputs": [],
      "payable": false,
      "stateMutability": "nonpayable",
      "type": "function"
    }
  ],
  "bytecode": "0x608060405234801561001057600080fd5b50612809806100206000396000f300608060405260043610610078576000357c0100000000000000000000000000000000000000000000000000000000900463ffffffff16806307227d991461007d5780630d765a77146100a65780632165cb02146100cf57806339066873146100fa578063b71cea8a14610123578063dc71297414610169575b600080fd5b34801561008957600080fd5b506100a4600480360361009f919081019061207e565b610192565b005b3480156100b257600080fd5b506100cd60048036036100c89190810190612055565b610363565b005b3480156100db57600080fd5b506100e46106a3565b6040516100f191906124a2565b60405180910390f35b34801561010657600080fd5b50610121600480360361011c9190810190611f2b565b610efb565b005b34801561012f57600080fd5b5061014a60048036036101459190810190612055565b6112da565b6040516101609a999897969594939291906124c4565b60405180910390f35b34801561017557600080fd5b50610190600480360361018b9190810190612055565b611a78565b005b61019a611a84565b6101a2611a9e565b604080519081016040528085815260200184815250915060a060405190810160405280898152602001888152602001878152602001868152602001838152509050600160008b8154811015156101f457fe5b906000526020600020906010020160070160006101000a81548160ff0219169083600181111561022057fe5b02179055508060008b81548110151561023557fe5b90600052602060002090601002016008016000820151816000019080519060200190610262929190611ad4565b50602082015181600101908051906020019061027f929190611ad4565b50604082015181600201908051906020019061029c929190611ad4565b5060608201518160030190805190602001906102b9929190611ad4565b5060808201518160040160008201518160000190805190602001906102df929190611ad4565b5060208201518160010190805190602001906102fc929190611ad4565b5050509050507f86060bf19ae776bcffc4579ce504575803440563e14f6c025cad641be480b5578a8a83600001518460200151856040015186606001518a8a60405161034f989796959493929190612583565b60405180910390a150505050505050505050565b600060016000805490500381548110151561037a57fe5b906000526020600020906010020160008281548110151561039757fe5b9060005260206000209060100201600082015481600001556001820160009054906101000a900473ffffffffffffffffffffffffffffffffffffffff168160010160006101000a81548173ffffffffffffffffffffffffffffffffffffffff021916908373ffffffffffffffffffffffffffffffffffffffff1602179055506002820181600201908054600181600116156101000203166002900461043d929190611b54565b506003820160009054906101000a900460ff168160030160006101000a81548160ff0219169083600281111561046f57fe5b02179055506004820181600401908054600181600116156101000203166002900461049b929190611b54565b50600582018160050190805460018160011615610100020316600290046104c3929190611b54565b50600682015481600601556007820160009054906101000a900460ff168160070160006101000a81548160ff021916908360018111156104ff57fe5b0217905550600882018160080160008201816000019080546001816001161561010002031660029004610533929190611b54565b506001820181600101908054600181600116156101000203166002900461055b929190611b54565b5060028201816002019080546001816001161561010002031660029004610583929190611b54565b50600382018160030190805460018160011615610100020316600290046105ab929190611b54565b506004820181600401600082018160000190805460018160011615610100020316600290046105db929190611b54565b5060018201816001019080546001816001161561010002031660029004610603929190611b54565b5050505050600e820181600e0160008201816000019080546001816001161561010002031660029004610637929190611b54565b506001820181600101908054600181600116156101000203166002900461065f929190611b54565b5050509050508060008281548110151561067557fe5b906000526020600020906010020160000181905550600080548091906001900361069f9190611bdb565b5050565b60606000805480602002602001604051908101604052809291908181526020016000905b82821015610ef257838290600052602060002090601002016101406040519081016040529081600082015481526020016001820160009054906101000a900473ffffffffffffffffffffffffffffffffffffffff1673ffffffffffffffffffffffffffffffffffffffff1673ffffffffffffffffffffffffffffffffffffffff168152602001600282018054600181600116156101000203166002900480601f0160208091040260200160405190810160405280929190818152602001828054600181600116156101000203166002900480156107e55780601f106107ba576101008083540402835291602001916107e5565b820191906000526020600020905b8154815290600101906020018083116107c857829003601f168201915b505050505081526020016003820160009054906101000a900460ff16600281111561080c57fe5b600281111561081757fe5b8152602001600482018054600181600116156101000203166002900480601f0160208091040260200160405190810160405280929190818152602001828054600181600116156101000203166002900480156108b45780601f10610889576101008083540402835291602001916108b4565b820191906000526020600020905b81548152906001019060200180831161089757829003601f168201915b50505050508152602001600582018054600181600116156101000203166002900480601f0160208091040260200160405190810160405280929190818152602001828054600181600116156101000203166002900480156109565780601f1061092b57610100808354040283529160200191610956565b820191906000526020600020905b81548152906001019060200180831161093957829003601f168201915b50505050508152602001600682015481526020016007820160009054906101000a900460ff16600181111561098757fe5b600181111561099257fe5b81526020016008820160a06040519081016040529081600082018054600181600116156101000203166002900480601f016020809104026020016040519081016040528092919081815260200182805460018160011615610100020316600290048015610a405780601f10610a1557610100808354040283529160200191610a40565b820191906000526020600020905b815481529060010190602001808311610a2357829003601f168201915b50505050508152602001600182018054600181600116156101000203166002900480601f016020809104026020016040519081016040528092919081815260200182805460018160011615610100020316600290048015610ae25780601f10610ab757610100808354040283529160200191610ae2565b820191906000526020600020905b815481529060010190602001808311610ac557829003601f168201915b50505050508152602001600282018054600181600116156101000203166002900480601f016020809104026020016040519081016040528092919081815260200182805460018160011615610100020316600290048015610b845780601f10610b5957610100808354040283529160200191610b84565b820191906000526020600020905b815481529060010190602001808311610b6757829003601f168201915b50505050508152602001600382018054600181600116156101000203166002900480601f016020809104026020016040519081016040528092919081815260200182805460018160011615610100020316600290048015610c265780601f10610bfb57610100808354040283529160200191610c26565b820191906000526020600020905b815481529060010190602001808311610c0957829003601f168201915b5050505050815260200160048201604080519081016040529081600082018054600181600116156101000203166002900480601f016020809104026020016040519081016040528092919081815260200182805460018160011615610100020316600290048015610cd85780601f10610cad57610100808354040283529160200191610cd8565b820191906000526020600020905b815481529060010190602001808311610cbb57829003601f168201915b50505050508152602001600182018054600181600116156101000203166002900480601f016020809104026020016040519081016040528092919081815260200182805460018160011615610100020316600290048015610d7a5780601f10610d4f57610100808354040283529160200191610d7a565b820191906000526020600020905b815481529060010190602001808311610d5d57829003601f168201915b505050505081525050815250508152602001600e8201604080519081016040529081600082018054600181600116156101000203166002900480601f016020809104026020016040519081016040528092919081815260200182805460018160011615610100020316600290048015610e345780601f10610e0957610100808354040283529160200191610e34565b820191906000526020600020905b815481529060010190602001808311610e1757829003601f168201915b50505050508152602001600182018054600181600116156101000203166002900480601f016020809104026020016040519081016040528092919081815260200182805460018160011615610100020316600290048015610ed65780601f10610eab57610100808354040283529160200191610ed6565b820191906000526020600020905b815481529060010190602001808311610eb957829003601f168201915b50505050508152505081525050815260200190600101906106c7565b50505050905090565b610f03611a84565b610f0b611a84565b610f13611c0d565b604080519081016040528086815260200185815250925060408051908101604052806040805190810160405280600181526020017f300000000000000000000000000000000000000000000000000000000000000081525081526020016040805190810160405280600181526020017f300000000000000000000000000000000000000000000000000000000000000081525081525091506101406040519081016040528060008054905081526020018c73ffffffffffffffffffffffffffffffffffffffff1681526020018b81526020018a6002811115610ff157fe5b81526020018981526020018881526020018781526020016000600181111561101557fe5b815260200160a06040519081016040528060206040519081016040528060008152508152602001602060405190810160405280600081525081526020016020604051908101604052806000815250815260200160206040519081016040528060008152508152602001858152508152602001848152509050600081908060018154018082558091505090600182039060005260206000209060100201600090919290919091506000820151816000015560208201518160010160006101000a81548173ffffffffffffffffffffffffffffffffffffffff021916908373ffffffffffffffffffffffffffffffffffffffff1602179055506040820151816002019080519060200190611128929190611ad4565b5060608201518160030160006101000a81548160ff0219169083600281111561114d57fe5b0217905550608082015181600401908051906020019061116e929190611ad4565b5060a082015181600501908051906020019061118b929190611ad4565b5060c0820151816006015560e08201518160070160006101000a81548160ff021916908360018111156111ba57fe5b02179055506101008201518160080160008201518160000190805190602001906111e5929190611ad4565b506020820151816001019080519060200190611202929190611ad4565b50604082015181600201908051906020019061121f929190611ad4565b50606082015181600301908051906020019061123c929190611ad4565b506080820151816004016000820151816000019080519060200190611262929190611ad4565b50602082015181600101908051906020019061127f929190611ad4565b505050505061012082015181600e0160008201518160000190805190602001906112aa929190611ad4565b5060208201518160010190805190602001906112c7929190611ad4565b5050505050505050505050505050505050565b6000818154811015156112e957fe5b90600052602060002090601002016000915090508060000154908060010160009054906101000a900473ffffffffffffffffffffffffffffffffffffffff1690806002018054600181600116156101000203166002900480601f0160208091040260200160405190810160405280929190818152602001828054600181600116156101000203166002900480156113c15780601f10611396576101008083540402835291602001916113c1565b820191906000526020600020905b8154815290600101906020018083116113a457829003601f168201915b5050505050908060030160009054906101000a900460ff1690806004018054600181600116156101000203166002900480601f0160208091040260200160405190810160405280929190818152602001828054600181600116156101000203166002900480156114725780601f1061144757610100808354040283529160200191611472565b820191906000526020600020905b81548152906001019060200180831161145557829003601f168201915b505050505090806005018054600181600116156101000203166002900480601f0160208091040260200160405190810160405280929190818152602001828054600181600116156101000203166002900480156115105780601f106114e557610100808354040283529160200191611510565b820191906000526020600020905b8154815290600101906020018083116114f357829003601f168201915b5050505050908060060154908060070160009054906101000a900460ff16908060080160a06040519081016040529081600082018054600181600116156101000203166002900480601f0160208091040260200160405190810160405280929190818152602001828054600181600116156101000203166002900480156115d85780601f106115ad576101008083540402835291602001916115d8565b820191906000526020600020905b8154815290600101906020018083116115bb57829003601f168201915b50505050508152602001600182018054600181600116156101000203166002900480601f01602080910402602001604051908101604052809291908181526020018280546001816001161561010002031660029004801561167a5780601f1061164f5761010080835404028352916020019161167a565b820191906000526020600020905b81548152906001019060200180831161165d57829003601f168201915b50505050508152602001600282018054600181600116156101000203166002900480601f01602080910402602001604051908101604052809291908181526020018280546001816001161561010002031660029004801561171c5780601f106116f15761010080835404028352916020019161171c565b820191906000526020600020905b8154815290600101906020018083116116ff57829003601f168201915b50505050508152602001600382018054600181600116156101000203166002900480601f0160208091040260200160405190810160405280929190818152602001828054600181600116156101000203166002900480156117be5780601f10611793576101008083540402835291602001916117be565b820191906000526020600020905b8154815290600101906020018083116117a157829003601f168201915b5050505050815260200160048201604080519081016040529081600082018054600181600116156101000203166002900480601f0160208091040260200160405190810160405280929190818152602001828054600181600116156101000203166002900480156118705780601f1061184557610100808354040283529160200191611870565b820191906000526020600020905b81548152906001019060200180831161185357829003601f168201915b50505050508152602001600182018054600181600116156101000203166002900480601f0160208091040260200160405190810160405280929190818152602001828054600181600116156101000203166002900480156119125780601f106118e757610100808354040283529160200191611912565b820191906000526020600020905b8154815290600101906020018083116118f557829003601f168201915b505050505081525050815250509080600e01604080519081016040529081600082018054600181600116156101000203166002900480601f0160208091040260200160405190810160405280929190818152602001828054600181600116156101000203166002900480156119c85780601f1061199d576101008083540402835291602001916119c8565b820191906000526020600020905b8154815290600101906020018083116119ab57829003601f168201915b50505050508152602001600182018054600181600116156101000203166002900480601f016020809104026020016040519081016040528092919081815260200182805460018160011615610100020316600290048015611a6a5780601f10611a3f57610100808354040283529160200191611a6a565b820191906000526020600020905b815481529060010190602001808311611a4d57829003601f168201915b50505050508152505090508a565b611a8181610363565b50565b604080519081016040528060608152602001606081525090565b60c06040519081016040528060608152602001606081526020016060815260200160608152602001611ace611c99565b81525090565b828054600181600116156101000203166002900490600052602060002090601f016020900481019282601f10611b1557805160ff1916838001178555611b43565b82800160010185558215611b43579182015b82811115611b42578251825591602001919060010190611b27565b5b509050611b509190611cb3565b5090565b828054600181600116156101000203166002900490600052602060002090601f016020900481019282601f10611b8d5780548555611bca565b82800160010185558215611bca57600052602060002091601f016020900482015b82811115611bc9578254825591600101919060010190611bae565b5b509050611bd79190611cb3565b5090565b815481835581811115611c0857601002816010028360005260206000209182019101611c079190611cd8565b5b505050565b6102006040519081016040528060008152602001600073ffffffffffffffffffffffffffffffffffffffff1681526020016060815260200160006002811115611c5257fe5b815260200160608152602001606081526020016000815260200160006001811115611c7957fe5b8152602001611c86611e1b565b8152602001611c93611c99565b81525090565b604080519081016040528060608152602001606081525090565b611cd591905b80821115611cd1576000816000905550600101611cb9565b5090565b90565b611e1891905b80821115611e14576000808201600090556001820160006101000a81549073ffffffffffffffffffffffffffffffffffffffff0219169055600282016000611d269190611e51565b6003820160006101000a81549060ff0219169055600482016000611d4a9190611e51565b600582016000611d5a9190611e51565b60068201600090556007820160006101000a81549060ff02191690556008820160008082016000611d8b9190611e51565b600182016000611d9b9190611e51565b600282016000611dab9190611e51565b600382016000611dbb9190611e51565b6004820160008082016000611dd09190611e51565b600182016000611de09190611e51565b50505050600e820160008082016000611df99190611e51565b600182016000611e099190611e51565b505050601001611cde565b5090565b90565b60c06040519081016040528060608152602001606081526020016060815260200160608152602001611e4b611c99565b81525090565b50805460018160011615610100020316600290046000825580601f10611e775750611e96565b601f016020900490600052602060002090810190611e959190611cb3565b5b50565b6000611ea58235612715565b905092915050565b6000611eb98235612735565b905092915050565b600082601f8301121515611ed457600080fd5b8135611ee7611ee282612658565b61262b565b91508082526020830160208301858383011115611f0357600080fd5b611f0e83828461277c565b50505092915050565b6000611f23823561274e565b905092915050565b600080600080600080600080610100898b031215611f4857600080fd5b6000611f568b828c01611e99565b985050602089013567ffffffffffffffff811115611f7357600080fd5b611f7f8b828c01611ec1565b9750506040611f908b828c01611ead565b965050606089013567ffffffffffffffff811115611fad57600080fd5b611fb98b828c01611ec1565b955050608089013567ffffffffffffffff811115611fd657600080fd5b611fe28b828c01611ec1565b94505060a0611ff38b828c01611f17565b93505060c089013567ffffffffffffffff81111561201057600080fd5b61201c8b828c01611ec1565b92505060e089013567ffffffffffffffff81111561203957600080fd5b6120458b828c01611ec1565b9150509295985092959890939650565b60006020828403121561206757600080fd5b600061207584828501611f17565b91505092915050565b600080600080600080600080610100898b03121561209b57600080fd5b60006120a98b828c01611f17565b98505060206120ba8b828c01611e99565b975050604089013567ffffffffffffffff8111156120d757600080fd5b6120e38b828c01611ec1565b965050606089013567ffffffffffffffff81111561210057600080fd5b61210c8b828c01611ec1565b955050608089013567ffffffffffffffff81111561212957600080fd5b6121358b828c01611ec1565b94505060a089013567ffffffffffffffff81111561215257600080fd5b61215e8b828c01611ec1565b93505060c089013567ffffffffffffffff81111561217b57600080fd5b6121878b828c01611ec1565b92505060e089013567ffffffffffffffff8111156121a457600080fd5b6121b08b828c01611ec1565b9150509295985092959890939650565b6121c9816126bf565b82525050565b60006121da82612691565b808452602084019350836020820285016121f385612684565b60005b8481101561222c57838303885261220e8383516122c7565b9250612219826126b2565b91506020880197506001810190506121f6565b508196508694505050505092915050565b61224681612758565b82525050565b6122558161276a565b82525050565b6000612266826126a7565b80845261227a81602086016020860161278b565b612283816127be565b602085010191505092915050565b600061229c8261269c565b8084526122b081602086016020860161278b565b6122b9816127be565b602085010191505092915050565b6000610140830160008301516122e06000860182612493565b5060208301516122f360208601826121c0565b506040830151848203604086015261230b8282612291565b9150506060830151612320606086018261224c565b50608083015184820360808601526123388282612291565b91505060a083015184820360a08601526123528282612291565b91505060c083015161236760c0860182612493565b5060e083015161237a60e086018261223d565b506101008301518482036101008601526123948282612401565b9150506101208301518482036101208601526123b082826123bd565b9150508091505092915050565b600060408301600083015184820360008601526123da8282612291565b915050602083015184820360208601526123f48282612291565b9150508091505092915050565b600060a083016000830151848203600086015261241e8282612291565b915050602083015184820360208601526124388282612291565b915050604083015184820360408601526124528282612291565b9150506060830151848203606086015261246c8282612291565b9150506080830151848203608086015261248682826123bd565b9150508091505092915050565b61249c8161270b565b82525050565b600060208201905081810360008301526124bc81846121cf565b905092915050565b6000610140820190506124da600083018d612493565b6124e7602083018c6121c0565b81810360408301526124f9818b612291565b9050612508606083018a61224c565b818103608083015261251a8189612291565b905081810360a083015261252e8188612291565b905061253d60c0830187612493565b61254a60e083018661223d565b81810361010083015261255d8185612401565b905081810361012083015261257281846123bd565b90509b9a5050505050505050505050565b600061010082019050612599600083018b612493565b6125a6602083018a6121c0565b81810360408301526125b88189612291565b905081810360608301526125cc8188612291565b905081810360808301526125e08187612291565b905081810360a08301526125f48186612291565b905081810360c0830152612608818561225b565b905081810360e083015261261c818461225b565b90509998505050505050505050565b6000604051905081810181811067ffffffffffffffff8211171561264e57600080fd5b8060405250919050565b600067ffffffffffffffff82111561266f57600080fd5b601f19601f8301169050602081019050919050565b6000602082019050919050565b600081519050919050565b600081519050919050565b600081519050919050565b6000602082019050919050565b600073ffffffffffffffffffffffffffffffffffffffff82169050919050565b60006002821015156126ed57fe5b819050919050565b600060038210151561270357fe5b819050919050565b6000819050919050565b600073ffffffffffffffffffffffffffffffffffffffff82169050919050565b600060038210151561274657600080fd5b819050919050565b6000819050919050565b6000612763826126df565b9050919050565b6000612775826126f5565b9050919050565b82818337600083830152505050565b60005b838110156127a957808201518184015260208101905061278e565b838111156127b8576000848401525b50505050565b6000601f19601f83011690509190505600a265627a7a72305820b226c9b920dfe3c6dcbab6df144570ce31538ed975915e5c3e324637571ec7d76c6578706572696d656e74616cf50037",
  "source": "pragma experimental ABIEncoderV2;\n\n// contract.registerDrive('0x5110E08969264C603C62a9805687Dd065B7c4789', '0829527843', 0, 'Honda Alpha', \"Thanh Da\", 25000)\n\ncontract RideSharing {\n    function RideSharing() {\n\n    }\n\n    enum VEHICLE_TYPE {\n        MOTORCYCLE, FOUR_SEAT_CAR, SEVEN_SEAT_CAR\n    }\n\n    enum DRIVER_STATE {\n        FREE, IS_PROCESSING\n    }\n\n    // DRIVER\n    Driver[] public listDrivers;\n\n    function getListDrivers() public view returns (Driver[]) {\n        return listDrivers;\n    }\n\n\t\tstruct Geometry {\n\t\t\t\tstring lat;\n\t\t\t\tstring lng;\n\t\t}\n\n    struct Driver {\n        uint index;\n        address addr;\n        string phoneNumber;\n        VEHICLE_TYPE vehicleType;\n        string vehicleDetail;\n        string position;\n        uint pricePerKm;\n        DRIVER_STATE state;\n        Rider rider;\n\t\t\t\tGeometry geometry;\n    }\n\n    function registerDrive(\n        address addr,\n        string phoneNumber,\n        VEHICLE_TYPE vehicleType,\n        string vehicleDetail,\n        string position,\n        uint pricePerKm,\n\t\t\t\tstring lat,\n\t\t\t\tstring lng) {\n\t\t\t\tGeometry memory geometry = Geometry(lat, lng);\n\t\t\t\tGeometry memory geometryRider = Geometry(\"0\", \"0\");\n\n        Driver memory driver = Driver(\n            listDrivers.length,\n            addr,\n            phoneNumber,\n            vehicleType,\n            vehicleDetail,\n            position,\n            pricePerKm,\n            DRIVER_STATE.FREE,\n            Rider('', '', '', '', geometryRider),\n\t\t\t\t\t\tgeometry\n        );\n\n        listDrivers.push(driver);\n    }\n\n    // RIDER\n    struct Rider {\n        string riderAddress;\n        string phoneNumber;\n        string position;\n        string destination;\n\t\t\t\tGeometry geometry;\n    }\n\n    function processRide(uint driverIndex, address driverAddress, string riderAddress, string riderPhoneNumber, string riderPosition, string riderDestination, string lat, string lng) public {\n\t\t\t\tGeometry memory geometry = Geometry(lat, lng);\n        Rider memory rider = Rider(riderAddress, riderPhoneNumber, riderPosition, riderDestination, geometry);\n        listDrivers[driverIndex].state = DRIVER_STATE.IS_PROCESSING;\n        listDrivers[driverIndex].rider = rider;\n        emit NewRide(driverIndex, driverAddress, rider.riderAddress, rider.phoneNumber, rider.position, rider.destination, lat, lng);\n    }\n\n    function removeDriverByIndex (uint index) {\n        listDrivers[index] = listDrivers[listDrivers.length - 1];\n        listDrivers[index].index = index;\n//        delete listDrivers[listDrivers.length - 1];\n        listDrivers.length--;\n    }\n\n    function confirmRide(uint driverIndex) public {\n        removeDriverByIndex(driverIndex);\n    }\n\n    event NewRide (\n        uint driverIndex,\n        address driverAddress,\n        string riderAddress,\n        string riderPhoneNumber,\n        string riderPosition,\n        string riderDestination,\n\t\t\t\tstring lat,\n\t\t\t\tstring lng\n    );\n}\n\n",
  "sourcePath": "/home/phuc/homework/bear2bear/contracts/RideSharing.sol",
  "compiler": {
    "name": "solc",
    "version": "0.4.24+commit.e67f0147.Emscripten.clang"
  },
  "schemaVersion": "3.4.1",
  "updatedAt": "2021-06-10T16:40:41.908Z",
  "devdoc": {
    "methods": {}
  },
  "userdoc": {
    "methods": {}
  }
}