{
  "contractName": "RideSharing",
  "abi": [
    {
      "constant": true,
      "inputs": [
        {
          "name": "",
          "type": "uint256"
        }
      ],
      "name": "listDrivers",
      "outputs": [
        {
          "name": "index",
          "type": "uint256"
        },
        {
          "name": "addr",
          "type": "address"
        },
        {
          "name": "phoneNumber",
          "type": "string"
        },
        {
          "name": "vehicleType",
          "type": "uint8"
        },
        {
          "name": "vehicleDetail",
          "type": "string"
        },
        {
          "name": "position",
          "type": "string"
        },
        {
          "name": "pricePerKm",
          "type": "uint256"
        },
        {
          "name": "state",
          "type": "uint8"
        },
        {
          "components": [
            {
              "name": "riderAddress",
              "type": "string"
            },
            {
              "name": "phoneNumber",
              "type": "string"
            },
            {
              "name": "position",
              "type": "string"
            },
            {
              "name": "destination",
              "type": "string"
            },
            {
              "name": "distance",
              "type": "uint256"
            },
            {
              "components": [
                {
                  "name": "lat",
                  "type": "string"
                },
                {
                  "name": "lng",
                  "type": "string"
                }
              ],
              "name": "geometry",
              "type": "tuple"
            }
          ],
          "name": "rider",
          "type": "tuple"
        },
        {
          "components": [
            {
              "name": "lat",
              "type": "string"
            },
            {
              "name": "lng",
              "type": "string"
            }
          ],
          "name": "geometry",
          "type": "tuple"
        }
      ],
      "payable": false,
      "stateMutability": "view",
      "type": "function"
    },
    {
      "inputs": [],
      "payable": false,
      "stateMutability": "nonpayable",
      "type": "constructor"
    },
    {
      "anonymous": false,
      "inputs": [
        {
          "indexed": false,
          "name": "driverIndex",
          "type": "uint256"
        },
        {
          "indexed": false,
          "name": "driverAddress",
          "type": "address"
        },
        {
          "indexed": false,
          "name": "riderAddress",
          "type": "string"
        },
        {
          "indexed": false,
          "name": "riderPhoneNumber",
          "type": "string"
        },
        {
          "indexed": false,
          "name": "riderPosition",
          "type": "string"
        },
        {
          "indexed": false,
          "name": "riderDestination",
          "type": "string"
        },
        {
          "indexed": false,
          "name": "riderDistance",
          "type": "uint256"
        },
        {
          "indexed": false,
          "name": "lat",
          "type": "string"
        },
        {
          "indexed": false,
          "name": "lng",
          "type": "string"
        }
      ],
      "name": "NewRide",
      "type": "event"
    },
    {
      "constant": true,
      "inputs": [],
      "name": "getListDrivers",
      "outputs": [
        {
          "components": [
            {
              "name": "index",
              "type": "uint256"
            },
            {
              "name": "addr",
              "type": "address"
            },
            {
              "name": "phoneNumber",
              "type": "string"
            },
            {
              "name": "vehicleType",
              "type": "uint8"
            },
            {
              "name": "vehicleDetail",
              "type": "string"
            },
            {
              "name": "position",
              "type": "string"
            },
            {
              "name": "pricePerKm",
              "type": "uint256"
            },
            {
              "name": "state",
              "type": "uint8"
            },
            {
              "components": [
                {
                  "name": "riderAddress",
                  "type": "string"
                },
                {
                  "name": "phoneNumber",
                  "type": "string"
                },
                {
                  "name": "position",
                  "type": "string"
                },
                {
                  "name": "destination",
                  "type": "string"
                },
                {
                  "name": "distance",
                  "type": "uint256"
                },
                {
                  "components": [
                    {
                      "name": "lat",
                      "type": "string"
                    },
                    {
                      "name": "lng",
                      "type": "string"
                    }
                  ],
                  "name": "geometry",
                  "type": "tuple"
                }
              ],
              "name": "rider",
              "type": "tuple"
            },
            {
              "components": [
                {
                  "name": "lat",
                  "type": "string"
                },
                {
                  "name": "lng",
                  "type": "string"
                }
              ],
              "name": "geometry",
              "type": "tuple"
            }
          ],
          "name": "",
          "type": "tuple[]"
        }
      ],
      "payable": false,
      "stateMutability": "view",
      "type": "function"
    },
    {
      "constant": false,
      "inputs": [
        {
          "name": "addr",
          "type": "address"
        },
        {
          "name": "phoneNumber",
          "type": "string"
        },
        {
          "name": "vehicleType",
          "type": "uint8"
        },
        {
          "name": "vehicleDetail",
          "type": "string"
        },
        {
          "name": "position",
          "type": "string"
        },
        {
          "name": "pricePerKm",
          "type": "uint256"
        },
        {
          "name": "lat",
          "type": "string"
        },
        {
          "name": "lng",
          "type": "string"
        }
      ],
      "name": "registerDrive",
      "outputs": [],
      "payable": false,
      "stateMutability": "nonpayable",
      "type": "function"
    },
    {
      "constant": false,
      "inputs": [
        {
          "name": "driverIndex",
          "type": "uint256"
        },
        {
          "name": "driverAddress",
          "type": "address"
        },
        {
          "name": "riderAddress",
          "type": "string"
        },
        {
          "name": "riderPhoneNumber",
          "type": "string"
        },
        {
          "name": "riderPosition",
          "type": "string"
        },
        {
          "name": "riderDestination",
          "type": "string"
        },
        {
          "name": "riderDistance",
          "type": "uint256"
        },
        {
          "name": "lat",
          "type": "string"
        },
        {
          "name": "lng",
          "type": "string"
        }
      ],
      "name": "processRide",
      "outputs": [],
      "payable": false,
      "stateMutability": "nonpayable",
      "type": "function"
    },
    {
      "constant": false,
      "inputs": [
        {
          "name": "index",
          "type": "uint256"
        }
      ],
      "name": "removeDriverByIndex",
      "outputs": [],
      "payable": false,
      "stateMutability": "nonpayable",
      "type": "function"
    },
    {
      "constant": false,
      "inputs": [
        {
          "name": "driverIndex",
          "type": "uint256"
        }
      ],
      "name": "finishRide",
      "outputs": [],
      "payable": false,
      "stateMutability": "nonpayable",
      "type": "function"
    }
  ],
  "bytecode": "0x608060405234801561001057600080fd5b5061289b806100206000396000f300608060405260043610610078576000357c0100000000000000000000000000000000000000000000000000000000900463ffffffff1680630d765a771461007d5780632165cb02146100a65780632c1809e6146100d157806339066873146100fa57806347c1019d14610123578063b71cea8a1461014c575b600080fd5b34801561008957600080fd5b506100a4600480360361009f91908101906120b1565b610192565b005b3480156100b257600080fd5b506100bb6104dc565b6040516100c89190612525565b60405180910390f35b3480156100dd57600080fd5b506100f860048036036100f391908101906120b1565b610d3e565b005b34801561010657600080fd5b50610121600480360361011c9190810190611f87565b610d4a565b005b34801561012f57600080fd5b5061014a600480360361014591908101906120da565b61113a565b005b34801561015857600080fd5b50610173600480360361016e91908101906120b1565b611322565b6040516101899a99989796959493929190612547565b60405180910390f35b60006001600080549050038154811015156101a957fe5b90600052602060002090601102016000828154811015156101c657fe5b9060005260206000209060110201600082015481600001556001820160009054906101000a900473ffffffffffffffffffffffffffffffffffffffff168160010160006101000a81548173ffffffffffffffffffffffffffffffffffffffff021916908373ffffffffffffffffffffffffffffffffffffffff1602179055506002820181600201908054600181600116156101000203166002900461026c929190611aca565b506003820160009054906101000a900460ff168160030160006101000a81548160ff0219169083600281111561029e57fe5b0217905550600482018160040190805460018160011615610100020316600290046102ca929190611aca565b50600582018160050190805460018160011615610100020316600290046102f2929190611aca565b50600682015481600601556007820160009054906101000a900460ff168160070160006101000a81548160ff0219169083600181111561032e57fe5b0217905550600882018160080160008201816000019080546001816001161561010002031660029004610362929190611aca565b506001820181600101908054600181600116156101000203166002900461038a929190611aca565b50600282018160020190805460018160011615610100020316600290046103b2929190611aca565b50600382018160030190805460018160011615610100020316600290046103da929190611aca565b5060048201548160040155600582018160050160008201816000019080546001816001161561010002031660029004610414929190611aca565b506001820181600101908054600181600116156101000203166002900461043c929190611aca565b5050505050600f820181600f0160008201816000019080546001816001161561010002031660029004610470929190611aca565b5060018201816001019080546001816001161561010002031660029004610498929190611aca565b505050905050806000828154811015156104ae57fe5b90600052602060002090601102016000018190555060008054809190600190036104d89190611b51565b5050565b60606000805480602002602001604051908101604052809291908181526020016000905b82821015610d3557838290600052602060002090601102016101406040519081016040529081600082015481526020016001820160009054906101000a900473ffffffffffffffffffffffffffffffffffffffff1673ffffffffffffffffffffffffffffffffffffffff1673ffffffffffffffffffffffffffffffffffffffff168152602001600282018054600181600116156101000203166002900480601f01602080910402602001604051908101604052809291908181526020018280546001816001161561010002031660029004801561061e5780601f106105f35761010080835404028352916020019161061e565b820191906000526020600020905b81548152906001019060200180831161060157829003601f168201915b505050505081526020016003820160009054906101000a900460ff16600281111561064557fe5b600281111561065057fe5b8152602001600482018054600181600116156101000203166002900480601f0160208091040260200160405190810160405280929190818152602001828054600181600116156101000203166002900480156106ed5780601f106106c2576101008083540402835291602001916106ed565b820191906000526020600020905b8154815290600101906020018083116106d057829003601f168201915b50505050508152602001600582018054600181600116156101000203166002900480601f01602080910402602001604051908101604052809291908181526020018280546001816001161561010002031660029004801561078f5780601f106107645761010080835404028352916020019161078f565b820191906000526020600020905b81548152906001019060200180831161077257829003601f168201915b50505050508152602001600682015481526020016007820160009054906101000a900460ff1660018111156107c057fe5b60018111156107cb57fe5b81526020016008820160c06040519081016040529081600082018054600181600116156101000203166002900480601f0160208091040260200160405190810160405280929190818152602001828054600181600116156101000203166002900480156108795780601f1061084e57610100808354040283529160200191610879565b820191906000526020600020905b81548152906001019060200180831161085c57829003601f168201915b50505050508152602001600182018054600181600116156101000203166002900480601f01602080910402602001604051908101604052809291908181526020018280546001816001161561010002031660029004801561091b5780601f106108f05761010080835404028352916020019161091b565b820191906000526020600020905b8154815290600101906020018083116108fe57829003601f168201915b50505050508152602001600282018054600181600116156101000203166002900480601f0160208091040260200160405190810160405280929190818152602001828054600181600116156101000203166002900480156109bd5780601f10610992576101008083540402835291602001916109bd565b820191906000526020600020905b8154815290600101906020018083116109a057829003601f168201915b50505050508152602001600382018054600181600116156101000203166002900480601f016020809104026020016040519081016040528092919081815260200182805460018160011615610100020316600290048015610a5f5780601f10610a3457610100808354040283529160200191610a5f565b820191906000526020600020905b815481529060010190602001808311610a4257829003601f168201915b505050505081526020016004820154815260200160058201604080519081016040529081600082018054600181600116156101000203166002900480601f016020809104026020016040519081016040528092919081815260200182805460018160011615610100020316600290048015610b1b5780601f10610af057610100808354040283529160200191610b1b565b820191906000526020600020905b815481529060010190602001808311610afe57829003601f168201915b50505050508152602001600182018054600181600116156101000203166002900480601f016020809104026020016040519081016040528092919081815260200182805460018160011615610100020316600290048015610bbd5780601f10610b9257610100808354040283529160200191610bbd565b820191906000526020600020905b815481529060010190602001808311610ba057829003601f168201915b505050505081525050815250508152602001600f8201604080519081016040529081600082018054600181600116156101000203166002900480601f016020809104026020016040519081016040528092919081815260200182805460018160011615610100020316600290048015610c775780601f10610c4c57610100808354040283529160200191610c77565b820191906000526020600020905b815481529060010190602001808311610c5a57829003601f168201915b50505050508152602001600182018054600181600116156101000203166002900480601f016020809104026020016040519081016040528092919081815260200182805460018160011615610100020316600290048015610d195780601f10610cee57610100808354040283529160200191610d19565b820191906000526020600020905b815481529060010190602001808311610cfc57829003601f168201915b5050505050815250508152505081526020019060010190610500565b50505050905090565b610d4781610192565b50565b610d52611b83565b610d5a611b83565b610d62611b9d565b604080519081016040528086815260200185815250925060408051908101604052806040805190810160405280600181526020017f300000000000000000000000000000000000000000000000000000000000000081525081526020016040805190810160405280600181526020017f300000000000000000000000000000000000000000000000000000000000000081525081525091506101406040519081016040528060008054905081526020018c73ffffffffffffffffffffffffffffffffffffffff1681526020018b81526020018a6002811115610e4057fe5b815260200189815260200188815260200187815260200160006001811115610e6457fe5b815260200160c0604051908101604052806020604051908101604052806000815250815260200160206040519081016040528060008152508152602001602060405190810160405280600081525081526020016020604051908101604052806000815250815260200160008152602001858152508152602001848152509050600081908060018154018082558091505090600182039060005260206000209060110201600090919290919091506000820151816000015560208201518160010160006101000a81548173ffffffffffffffffffffffffffffffffffffffff021916908373ffffffffffffffffffffffffffffffffffffffff1602179055506040820151816002019080519060200190610f7e929190611c29565b5060608201518160030160006101000a81548160ff02191690836002811115610fa357fe5b02179055506080820151816004019080519060200190610fc4929190611c29565b5060a0820151816005019080519060200190610fe1929190611c29565b5060c0820151816006015560e08201518160070160006101000a81548160ff0219169083600181111561101057fe5b021790555061010082015181600801600082015181600001908051906020019061103b929190611c29565b506020820151816001019080519060200190611058929190611c29565b506040820151816002019080519060200190611075929190611c29565b506060820151816003019080519060200190611092929190611c29565b506080820151816004015560a08201518160050160008201518160000190805190602001906110c2929190611c29565b5060208201518160010190805190602001906110df929190611c29565b505050505061012082015181600f01600082015181600001908051906020019061110a929190611c29565b506020820151816001019080519060200190611127929190611c29565b5050505050505050505050505050505050565b611142611b83565b61114a611ca9565b604080519081016040528085815260200184815250915060c0604051908101604052808a8152602001898152602001888152602001878152602001868152602001838152509050600160008c8154811015156111a257fe5b906000526020600020906011020160070160006101000a81548160ff021916908360018111156111ce57fe5b02179055508060008c8154811015156111e357fe5b90600052602060002090601102016008016000820151816000019080519060200190611210929190611c29565b50602082015181600101908051906020019061122d929190611c29565b50604082015181600201908051906020019061124a929190611c29565b506060820151816003019080519060200190611267929190611c29565b506080820151816004015560a0820151816005016000820151816000019080519060200190611297929190611c29565b5060208201518160010190805190602001906112b4929190611c29565b5050509050507fc7746f7ab25d66504826d81ed09c6e5eb083bb9336dcb1de45e2d318166d120a8b8b836000015184602001518560400151866060015187608001518b8b60405161130d99989796959493929190612606565b60405180910390a15050505050505050505050565b60008181548110151561133157fe5b90600052602060002090601102016000915090508060000154908060010160009054906101000a900473ffffffffffffffffffffffffffffffffffffffff1690806002018054600181600116156101000203166002900480601f0160208091040260200160405190810160405280929190818152602001828054600181600116156101000203166002900480156114095780601f106113de57610100808354040283529160200191611409565b820191906000526020600020905b8154815290600101906020018083116113ec57829003601f168201915b5050505050908060030160009054906101000a900460ff1690806004018054600181600116156101000203166002900480601f0160208091040260200160405190810160405280929190818152602001828054600181600116156101000203166002900480156114ba5780601f1061148f576101008083540402835291602001916114ba565b820191906000526020600020905b81548152906001019060200180831161149d57829003601f168201915b505050505090806005018054600181600116156101000203166002900480601f0160208091040260200160405190810160405280929190818152602001828054600181600116156101000203166002900480156115585780601f1061152d57610100808354040283529160200191611558565b820191906000526020600020905b81548152906001019060200180831161153b57829003601f168201915b5050505050908060060154908060070160009054906101000a900460ff16908060080160c06040519081016040529081600082018054600181600116156101000203166002900480601f0160208091040260200160405190810160405280929190818152602001828054600181600116156101000203166002900480156116205780601f106115f557610100808354040283529160200191611620565b820191906000526020600020905b81548152906001019060200180831161160357829003601f168201915b50505050508152602001600182018054600181600116156101000203166002900480601f0160208091040260200160405190810160405280929190818152602001828054600181600116156101000203166002900480156116c25780601f10611697576101008083540402835291602001916116c2565b820191906000526020600020905b8154815290600101906020018083116116a557829003601f168201915b50505050508152602001600282018054600181600116156101000203166002900480601f0160208091040260200160405190810160405280929190818152602001828054600181600116156101000203166002900480156117645780601f1061173957610100808354040283529160200191611764565b820191906000526020600020905b81548152906001019060200180831161174757829003601f168201915b50505050508152602001600382018054600181600116156101000203166002900480601f0160208091040260200160405190810160405280929190818152602001828054600181600116156101000203166002900480156118065780601f106117db57610100808354040283529160200191611806565b820191906000526020600020905b8154815290600101906020018083116117e957829003601f168201915b505050505081526020016004820154815260200160058201604080519081016040529081600082018054600181600116156101000203166002900480601f0160208091040260200160405190810160405280929190818152602001828054600181600116156101000203166002900480156118c25780601f10611897576101008083540402835291602001916118c2565b820191906000526020600020905b8154815290600101906020018083116118a557829003601f168201915b50505050508152602001600182018054600181600116156101000203166002900480601f0160208091040260200160405190810160405280929190818152602001828054600181600116156101000203166002900480156119645780601f1061193957610100808354040283529160200191611964565b820191906000526020600020905b81548152906001019060200180831161194757829003601f168201915b505050505081525050815250509080600f01604080519081016040529081600082018054600181600116156101000203166002900480601f016020809104026020016040519081016040528092919081815260200182805460018160011615610100020316600290048015611a1a5780601f106119ef57610100808354040283529160200191611a1a565b820191906000526020600020905b8154815290600101906020018083116119fd57829003601f168201915b50505050508152602001600182018054600181600116156101000203166002900480601f016020809104026020016040519081016040528092919081815260200182805460018160011615610100020316600290048015611abc5780601f10611a9157610100808354040283529160200191611abc565b820191906000526020600020905b815481529060010190602001808311611a9f57829003601f168201915b50505050508152505090508a565b828054600181600116156101000203166002900490600052602060002090601f016020900481019282601f10611b035780548555611b40565b82800160010185558215611b4057600052602060002091601f016020900482015b82811115611b3f578254825591600101919060010190611b24565b5b509050611b4d9190611ce6565b5090565b815481835581811115611b7e57601102816011028360005260206000209182019101611b7d9190611d0b565b5b505050565b604080519081016040528060608152602001606081525090565b6102206040519081016040528060008152602001600073ffffffffffffffffffffffffffffffffffffffff1681526020016060815260200160006002811115611be257fe5b815260200160608152602001606081526020016000815260200160006001811115611c0957fe5b8152602001611c16611e56565b8152602001611c23611e93565b81525090565b828054600181600116156101000203166002900490600052602060002090601f016020900481019282601f10611c6a57805160ff1916838001178555611c98565b82800160010185558215611c98579182015b82811115611c97578251825591602001919060010190611c7c565b5b509050611ca59190611ce6565b5090565b60e0604051908101604052806060815260200160608152602001606081526020016060815260200160008152602001611ce0611e93565b81525090565b611d0891905b80821115611d04576000816000905550600101611cec565b5090565b90565b611e5391905b80821115611e4f576000808201600090556001820160006101000a81549073ffffffffffffffffffffffffffffffffffffffff0219169055600282016000611d599190611ead565b6003820160006101000a81549060ff0219169055600482016000611d7d9190611ead565b600582016000611d8d9190611ead565b60068201600090556007820160006101000a81549060ff02191690556008820160008082016000611dbe9190611ead565b600182016000611dce9190611ead565b600282016000611dde9190611ead565b600382016000611dee9190611ead565b60048201600090556005820160008082016000611e0b9190611ead565b600182016000611e1b9190611ead565b50505050600f820160008082016000611e349190611ead565b600182016000611e449190611ead565b505050601101611d11565b5090565b90565b60e0604051908101604052806060815260200160608152602001606081526020016060815260200160008152602001611e8d611e93565b81525090565b604080519081016040528060608152602001606081525090565b50805460018160011615610100020316600290046000825580601f10611ed35750611ef2565b601f016020900490600052602060002090810190611ef19190611ce6565b5b50565b6000611f0182356127a7565b905092915050565b6000611f1582356127c7565b905092915050565b600082601f8301121515611f3057600080fd5b8135611f43611f3e826126ea565b6126bd565b91508082526020830160208301858383011115611f5f57600080fd5b611f6a83828461280e565b50505092915050565b6000611f7f82356127e0565b905092915050565b600080600080600080600080610100898b031215611fa457600080fd5b6000611fb28b828c01611ef5565b985050602089013567ffffffffffffffff811115611fcf57600080fd5b611fdb8b828c01611f1d565b9750506040611fec8b828c01611f09565b965050606089013567ffffffffffffffff81111561200957600080fd5b6120158b828c01611f1d565b955050608089013567ffffffffffffffff81111561203257600080fd5b61203e8b828c01611f1d565b94505060a061204f8b828c01611f73565b93505060c089013567ffffffffffffffff81111561206c57600080fd5b6120788b828c01611f1d565b92505060e089013567ffffffffffffffff81111561209557600080fd5b6120a18b828c01611f1d565b9150509295985092959890939650565b6000602082840312156120c357600080fd5b60006120d184828501611f73565b91505092915050565b60008060008060008060008060006101208a8c0312156120f957600080fd5b60006121078c828d01611f73565b99505060206121188c828d01611ef5565b98505060408a013567ffffffffffffffff81111561213557600080fd5b6121418c828d01611f1d565b97505060608a013567ffffffffffffffff81111561215e57600080fd5b61216a8c828d01611f1d565b96505060808a013567ffffffffffffffff81111561218757600080fd5b6121938c828d01611f1d565b95505060a08a013567ffffffffffffffff8111156121b057600080fd5b6121bc8c828d01611f1d565b94505060c06121cd8c828d01611f73565b93505060e08a013567ffffffffffffffff8111156121ea57600080fd5b6121f68c828d01611f1d565b9250506101008a013567ffffffffffffffff81111561221457600080fd5b6122208c828d01611f1d565b9150509295985092959850929598565b61223981612751565b82525050565b600061224a82612723565b8084526020840193508360208202850161226385612716565b60005b8481101561229c57838303885261227e838351612337565b925061228982612744565b9150602088019750600181019050612266565b508196508694505050505092915050565b6122b6816127ea565b82525050565b6122c5816127fc565b82525050565b60006122d682612739565b8084526122ea81602086016020860161281d565b6122f381612850565b602085010191505092915050565b600061230c8261272e565b80845261232081602086016020860161281d565b61232981612850565b602085010191505092915050565b6000610140830160008301516123506000860182612516565b5060208301516123636020860182612230565b506040830151848203604086015261237b8282612301565b915050606083015161239060608601826122bc565b50608083015184820360808601526123a88282612301565b91505060a083015184820360a08601526123c28282612301565b91505060c08301516123d760c0860182612516565b5060e08301516123ea60e08601826122ad565b506101008301518482036101008601526124048282612471565b915050610120830151848203610120860152612420828261242d565b9150508091505092915050565b6000604083016000830151848203600086015261244a8282612301565b915050602083015184820360208601526124648282612301565b9150508091505092915050565b600060c083016000830151848203600086015261248e8282612301565b915050602083015184820360208601526124a88282612301565b915050604083015184820360408601526124c28282612301565b915050606083015184820360608601526124dc8282612301565b91505060808301516124f16080860182612516565b5060a083015184820360a0860152612509828261242d565b9150508091505092915050565b61251f8161279d565b82525050565b6000602082019050818103600083015261253f818461223f565b905092915050565b60006101408201905061255d600083018d612516565b61256a602083018c612230565b818103604083015261257c818b612301565b905061258b606083018a6122bc565b818103608083015261259d8189612301565b905081810360a08301526125b18188612301565b90506125c060c0830187612516565b6125cd60e08301866122ad565b8181036101008301526125e08185612471565b90508181036101208301526125f5818461242d565b90509b9a5050505050505050505050565b60006101208201905061261c600083018c612516565b612629602083018b612230565b818103604083015261263b818a612301565b9050818103606083015261264f8189612301565b905081810360808301526126638188612301565b905081810360a08301526126778187612301565b905061268660c0830186612516565b81810360e083015261269881856122cb565b90508181036101008301526126ad81846122cb565b90509a9950505050505050505050565b6000604051905081810181811067ffffffffffffffff821117156126e057600080fd5b8060405250919050565b600067ffffffffffffffff82111561270157600080fd5b601f19601f8301169050602081019050919050565b6000602082019050919050565b600081519050919050565b600081519050919050565b600081519050919050565b6000602082019050919050565b600073ffffffffffffffffffffffffffffffffffffffff82169050919050565b600060028210151561277f57fe5b819050919050565b600060038210151561279557fe5b819050919050565b6000819050919050565b600073ffffffffffffffffffffffffffffffffffffffff82169050919050565b60006003821015156127d857600080fd5b819050919050565b6000819050919050565b60006127f582612771565b9050919050565b600061280782612787565b9050919050565b82818337600083830152505050565b60005b8381101561283b578082015181840152602081019050612820565b8381111561284a576000848401525b50505050565b6000601f19601f83011690509190505600a265627a7a72305820949b5a6c9d445be3a632bdd78fa3f30787cad7b9b90795d32a4295450803a0d86c6578706572696d656e74616cf50037",
  "source": "pragma experimental ABIEncoderV2;\n\n// contract.registerDrive('0x5110E08969264C603C62a9805687Dd065B7c4789', '0829527843', 0, 'Honda Alpha', \"Thanh Da\", 25000)\n\ncontract RideSharing {\n    function RideSharing() {\n\n    }\n\n    enum VEHICLE_TYPE {\n        MOTORCYCLE, FOUR_SEAT_CAR, SEVEN_SEAT_CAR\n    }\n\n    enum DRIVER_STATE {\n        FREE, IS_PROCESSING\n    }\n\n    // DRIVER\n    Driver[] public listDrivers;\n\n    function getListDrivers() public view returns (Driver[]) {\n        return listDrivers;\n    }\n\n\t\tstruct Geometry {\n\t\t\t\tstring lat;\n\t\t\t\tstring lng;\n\t\t}\n\n    struct Driver {\n        uint index;\n        address addr;\n        string phoneNumber;\n        VEHICLE_TYPE vehicleType;\n        string vehicleDetail;\n        string position;\n        uint pricePerKm;\n        DRIVER_STATE state;\n        Rider rider;\n\t\t\t\tGeometry geometry;\n    }\n\n    function registerDrive(\n        address addr,\n        string phoneNumber,\n        VEHICLE_TYPE vehicleType,\n        string vehicleDetail,\n        string position,\n        uint pricePerKm,\n\t\t\t\tstring lat,\n\t\t\t\tstring lng) {\n\t\t\t\tGeometry memory geometry = Geometry(lat, lng);\n\t\t\t\tGeometry memory geometryRider = Geometry(\"0\", \"0\");\n\n        Driver memory driver = Driver(\n            listDrivers.length,\n            addr,\n            phoneNumber,\n            vehicleType,\n            vehicleDetail,\n            position,\n            pricePerKm,\n            DRIVER_STATE.FREE,\n            Rider('', '', '', '', 0, geometryRider),\n\t\t\t\t\t\tgeometry\n        );\n\n        listDrivers.push(driver);\n    }\n\n    // RIDER\n    struct Rider {\n        string riderAddress;\n        string phoneNumber;\n        string position;\n        string destination;\n\t\t\t\tuint distance;\n\t\t\t\tGeometry geometry;\n    }\n\n    function processRide(uint driverIndex, address driverAddress, string riderAddress, string riderPhoneNumber, string riderPosition, string riderDestination, uint riderDistance, string lat, string lng) public {\n        Geometry memory geometry = Geometry(lat, lng);\n\t\t\t\tRider memory rider = Rider(riderAddress, riderPhoneNumber, riderPosition, riderDestination, riderDistance, geometry);\n        listDrivers[driverIndex].state = DRIVER_STATE.IS_PROCESSING;\n        listDrivers[driverIndex].rider = rider;\n        emit NewRide(driverIndex, driverAddress, rider.riderAddress, rider.phoneNumber, rider.position, rider.destination, rider.distance, lat, lng);\n    }\n\n    function removeDriverByIndex (uint index) {\n        listDrivers[index] = listDrivers[listDrivers.length - 1];\n        listDrivers[index].index = index;\n//        delete listDrivers[listDrivers.length - 1];\n        listDrivers.length--;\n    }\n\n    function finishRide(uint driverIndex) public {\n        removeDriverByIndex(driverIndex);\n    }\n\n    event NewRide (\n        uint driverIndex,\n        address driverAddress,\n        string riderAddress,\n        string riderPhoneNumber,\n        string riderPosition,\n        string riderDestination,\n        uint riderDistance,\n\t\t\t\tstring lat,\n\t\t\t\tstring lng\n    );\n}\n",
  "sourcePath": "/home/phuc/homework/bear2bear/contracts/RideSharing.sol",
  "compiler": {
    "name": "solc",
    "version": "0.4.24+commit.e67f0147.Emscripten.clang"
  },
  "schemaVersion": "3.4.1",
  "updatedAt": "2021-06-12T09:53:55.751Z",
  "networkType": "ethereum",
  "devdoc": {
    "methods": {}
  },
  "userdoc": {
    "methods": {}
  }
}