{
  "contractName": "RideSharing",
  "abi": [
    {
      "constant": true,
      "inputs": [
        {
          "name": "",
          "type": "uint256"
        }
      ],
      "name": "listDrivers",
      "outputs": [
        {
          "name": "driverIndex",
          "type": "uint256"
        },
        {
          "name": "driverAddress",
          "type": "address"
        },
        {
          "name": "phoneNumber",
          "type": "string"
        },
        {
          "name": "ownedVehicle",
          "type": "uint8"
        },
        {
          "name": "detailVehicle",
          "type": "string"
        },
        {
          "name": "position",
          "type": "string"
        },
        {
          "name": "pricePerKm",
          "type": "uint256"
        },
        {
          "name": "state",
          "type": "uint8"
        },
        {
          "components": [
            {
              "name": "riderAddress",
              "type": "string"
            },
            {
              "name": "phoneNumber",
              "type": "string"
            },
            {
              "name": "position",
              "type": "string"
            },
            {
              "name": "selectedVehicle",
              "type": "uint8"
            }
          ],
          "name": "rider",
          "type": "tuple"
        }
      ],
      "payable": false,
      "stateMutability": "view",
      "type": "function"
    },
    {
      "inputs": [],
      "payable": false,
      "stateMutability": "nonpayable",
      "type": "constructor"
    },
    {
      "anonymous": false,
      "inputs": [
        {
          "indexed": false,
          "name": "message",
          "type": "uint8"
        },
        {
          "indexed": false,
          "name": "driverIndex",
          "type": "uint256"
        },
        {
          "indexed": false,
          "name": "driverAddress",
          "type": "address"
        },
        {
          "indexed": false,
          "name": "phoneNumber",
          "type": "string"
        },
        {
          "indexed": false,
          "name": "ownedVehicle",
          "type": "uint8"
        },
        {
          "indexed": false,
          "name": "detailVehicle",
          "type": "string"
        },
        {
          "indexed": false,
          "name": "position",
          "type": "string"
        },
        {
          "indexed": false,
          "name": "pricePerKm",
          "type": "uint256"
        },
        {
          "indexed": false,
          "name": "state",
          "type": "uint8"
        }
      ],
      "name": "UpdateListDrivers",
      "type": "event"
    },
    {
      "anonymous": false,
      "inputs": [
        {
          "indexed": false,
          "name": "driverAddress",
          "type": "address"
        },
        {
          "indexed": false,
          "name": "riderAddress",
          "type": "string"
        },
        {
          "indexed": false,
          "name": "phoneNumber",
          "type": "string"
        },
        {
          "indexed": false,
          "name": "position",
          "type": "string"
        },
        {
          "indexed": false,
          "name": "selectedVehicle",
          "type": "uint8"
        }
      ],
      "name": "NewRideIsProcessing",
      "type": "event"
    },
    {
      "constant": true,
      "inputs": [],
      "name": "driversCount",
      "outputs": [
        {
          "name": "count",
          "type": "uint256"
        }
      ],
      "payable": false,
      "stateMutability": "view",
      "type": "function"
    },
    {
      "constant": true,
      "inputs": [],
      "name": "getListDrivers",
      "outputs": [
        {
          "components": [
            {
              "name": "driverIndex",
              "type": "uint256"
            },
            {
              "name": "driverAddress",
              "type": "address"
            },
            {
              "name": "phoneNumber",
              "type": "string"
            },
            {
              "name": "ownedVehicle",
              "type": "uint8"
            },
            {
              "name": "detailVehicle",
              "type": "string"
            },
            {
              "name": "position",
              "type": "string"
            },
            {
              "name": "pricePerKm",
              "type": "uint256"
            },
            {
              "name": "state",
              "type": "uint8"
            },
            {
              "components": [
                {
                  "name": "riderAddress",
                  "type": "string"
                },
                {
                  "name": "phoneNumber",
                  "type": "string"
                },
                {
                  "name": "position",
                  "type": "string"
                },
                {
                  "name": "selectedVehicle",
                  "type": "uint8"
                }
              ],
              "name": "rider",
              "type": "tuple"
            }
          ],
          "name": "",
          "type": "tuple[]"
        }
      ],
      "payable": false,
      "stateMutability": "view",
      "type": "function"
    },
    {
      "constant": false,
      "inputs": [
        {
          "name": "index",
          "type": "uint256"
        }
      ],
      "name": "removeDriverByIndex",
      "outputs": [],
      "payable": false,
      "stateMutability": "nonpayable",
      "type": "function"
    },
    {
      "constant": true,
      "inputs": [
        {
          "name": "_riderPosition",
          "type": "string"
        },
        {
          "name": "_riderSelectedVechcle",
          "type": "uint8"
        }
      ],
      "name": "findSuitableDrivers",
      "outputs": [
        {
          "components": [
            {
              "name": "driverIndex",
              "type": "uint256"
            },
            {
              "name": "driverAddress",
              "type": "address"
            },
            {
              "name": "phoneNumber",
              "type": "string"
            },
            {
              "name": "ownedVehicle",
              "type": "uint8"
            },
            {
              "name": "detailVehicle",
              "type": "string"
            },
            {
              "name": "position",
              "type": "string"
            },
            {
              "name": "pricePerKm",
              "type": "uint256"
            },
            {
              "name": "state",
              "type": "uint8"
            },
            {
              "components": [
                {
                  "name": "riderAddress",
                  "type": "string"
                },
                {
                  "name": "phoneNumber",
                  "type": "string"
                },
                {
                  "name": "position",
                  "type": "string"
                },
                {
                  "name": "selectedVehicle",
                  "type": "uint8"
                }
              ],
              "name": "rider",
              "type": "tuple"
            }
          ],
          "name": "resultList",
          "type": "tuple[]"
        },
        {
          "name": "resultCount",
          "type": "uint256"
        }
      ],
      "payable": false,
      "stateMutability": "view",
      "type": "function"
    },
    {
      "constant": false,
      "inputs": [
        {
          "name": "_driverAddress",
          "type": "address"
        },
        {
          "name": "_phoneNumber",
          "type": "string"
        },
        {
          "name": "_ownedVehicle",
          "type": "uint8"
        },
        {
          "name": "_detailVehicle",
          "type": "string"
        },
        {
          "name": "_position",
          "type": "string"
        },
        {
          "name": "_pricePerKm",
          "type": "uint256"
        }
      ],
      "name": "registerDrive",
      "outputs": [],
      "payable": false,
      "stateMutability": "nonpayable",
      "type": "function"
    },
    {
      "constant": false,
      "inputs": [
        {
          "name": "_driverIndex",
          "type": "uint256"
        },
        {
          "name": "_driverAddress",
          "type": "address"
        },
        {
          "name": "_riderAddress",
          "type": "string"
        },
        {
          "name": "_riderPhoneNumber",
          "type": "string"
        },
        {
          "name": "_riderPosition",
          "type": "string"
        },
        {
          "name": "_riderSelectedVechcle",
          "type": "uint8"
        }
      ],
      "name": "processRide",
      "outputs": [],
      "payable": false,
      "stateMutability": "nonpayable",
      "type": "function"
    },
    {
      "constant": false,
      "inputs": [
        {
          "name": "_index",
          "type": "uint256"
        }
      ],
      "name": "confirmRide",
      "outputs": [],
      "payable": false,
      "stateMutability": "nonpayable",
      "type": "function"
    }
  ],
  "bytecode": "0x608060405234801561001057600080fd5b50612b2b806100206000396000f30060806040526004361061008e576000357c0100000000000000000000000000000000000000000000000000000000900463ffffffff1680630d765a771461009357806311ae8b87146100bc5780632165cb02146100e5578063280787661461011057806367ce8e9f14610139578063b71cea8a14610177578063bd8d1e82146101bc578063dc712974146101e7575b600080fd5b34801561009f57600080fd5b506100ba60048036036100b591908101906123dc565b610210565b005b3480156100c857600080fd5b506100e360048036036100de91908101906122b7565b610596565b005b3480156100f157600080fd5b506100fa6108a2565b6040516101079190612778565b60405180910390f35b34801561011c57600080fd5b5061013760048036036101329190810190612405565b610dd5565b005b34801561014557600080fd5b50610160600480360361015b9190810190612388565b610f4a565b60405161016e92919061279a565b60405180910390f35b34801561018357600080fd5b5061019e600480360361019991908101906123dc565b611547565b6040516101b399989796959493929190612887565b60405180910390f35b3480156101c857600080fd5b506101d16119c4565b6040516101de919061286c565b60405180910390f35b3480156101f357600080fd5b5061020e600480360361020991908101906123dc565b6119d0565b005b600060016000805490500381548110151561022757fe5b90600052602060002090600c020160008281548110151561024457fe5b90600052602060002090600c0201600082015481600001556001820160009054906101000a900473ffffffffffffffffffffffffffffffffffffffff168160010160006101000a81548173ffffffffffffffffffffffffffffffffffffffff021916908373ffffffffffffffffffffffffffffffffffffffff160217905550600282018160020190805460018160011615610100020316600290046102ea929190611f4b565b506003820160009054906101000a900460ff168160030160006101000a81548160ff0219169083600281111561031c57fe5b021790555060048201816004019080546001816001161561010002031660029004610348929190611f4b565b5060058201816005019080546001816001161561010002031660029004610370929190611f4b565b50600682015481600601556007820160009054906101000a900460ff168160070160006101000a81548160ff021916908360018111156103ac57fe5b02179055506008820181600801600082018160000190805460018160011615610100020316600290046103e0929190611f4b565b5060018201816001019080546001816001161561010002031660029004610408929190611f4b565b5060028201816002019080546001816001161561010002031660029004610430929190611f4b565b506003820160009054906101000a900460ff168160030160006101000a81548160ff0219169083600281111561046257fe5b021790555050509050508060008281548110151561047c57fe5b90600052602060002090600c02016000018190555060006001600080549050038154811015156104a857fe5b90600052602060002090600c02016000808201600090556001820160006101000a81549073ffffffffffffffffffffffffffffffffffffffff02191690556002820160006104f69190611fd2565b6003820160006101000a81549060ff021916905560048201600061051a9190611fd2565b60058201600061052a9190611fd2565b60068201600090556007820160006101000a81549060ff0219169055600882016000808201600061055b9190611fd2565b60018201600061056b9190611fd2565b60028201600061057b9190611fd2565b6003820160006101000a81549060ff02191690555050505050565b61059e61201a565b6101206040519081016040528060008054905081526020018873ffffffffffffffffffffffffffffffffffffffff1681526020018781526020018660028111156105e457fe5b81526020018581526020018481526020018381526020016000600181111561060857fe5b81526020016080604051908101604052806020604051908101604052806000815250815260200160206040519081016040528060008152508152602001602060405190810160405280600081525081526020016000600281111561066857fe5b81525081525090506000819080600181540180825580915050906001820390600052602060002090600c0201600090919290919091506000820151816000015560208201518160010160006101000a81548173ffffffffffffffffffffffffffffffffffffffff021916908373ffffffffffffffffffffffffffffffffffffffff160217905550604082015181600201908051906020019061070b929190612099565b5060608201518160030160006101000a81548160ff0219169083600281111561073057fe5b02179055506080820151816004019080519060200190610751929190612099565b5060a082015181600501908051906020019061076e929190612099565b5060c0820151816006015560e08201518160070160006101000a81548160ff0219169083600181111561079d57fe5b02179055506101008201518160080160008201518160000190805190602001906107c8929190612099565b5060208201518160010190805190602001906107e5929190612099565b506040820151816002019080519060200190610802929190612099565b5060608201518160030160006101000a81548160ff0219169083600281111561082757fe5b021790555050505050507f1a83c48ff9e69fb80db2dbaa8009e74167d10ca44780c24de039ecf18221f8276000826000015183602001518460400151856060015186608001518760a001518860c001518960e00151604051610891999897969594939291906127ca565b60405180910390a150505050505050565b60606000805480602002602001604051908101604052809291908181526020016000905b82821015610dcc57838290600052602060002090600c02016101206040519081016040529081600082015481526020016001820160009054906101000a900473ffffffffffffffffffffffffffffffffffffffff1673ffffffffffffffffffffffffffffffffffffffff1673ffffffffffffffffffffffffffffffffffffffff168152602001600282018054600181600116156101000203166002900480601f0160208091040260200160405190810160405280929190818152602001828054600181600116156101000203166002900480156109e45780601f106109b9576101008083540402835291602001916109e4565b820191906000526020600020905b8154815290600101906020018083116109c757829003601f168201915b505050505081526020016003820160009054906101000a900460ff166002811115610a0b57fe5b6002811115610a1657fe5b8152602001600482018054600181600116156101000203166002900480601f016020809104026020016040519081016040528092919081815260200182805460018160011615610100020316600290048015610ab35780601f10610a8857610100808354040283529160200191610ab3565b820191906000526020600020905b815481529060010190602001808311610a9657829003601f168201915b50505050508152602001600582018054600181600116156101000203166002900480601f016020809104026020016040519081016040528092919081815260200182805460018160011615610100020316600290048015610b555780601f10610b2a57610100808354040283529160200191610b55565b820191906000526020600020905b815481529060010190602001808311610b3857829003601f168201915b50505050508152602001600682015481526020016007820160009054906101000a900460ff166001811115610b8657fe5b6001811115610b9157fe5b81526020016008820160806040519081016040529081600082018054600181600116156101000203166002900480601f016020809104026020016040519081016040528092919081815260200182805460018160011615610100020316600290048015610c3f5780601f10610c1457610100808354040283529160200191610c3f565b820191906000526020600020905b815481529060010190602001808311610c2257829003601f168201915b50505050508152602001600182018054600181600116156101000203166002900480601f016020809104026020016040519081016040528092919081815260200182805460018160011615610100020316600290048015610ce15780601f10610cb657610100808354040283529160200191610ce1565b820191906000526020600020905b815481529060010190602001808311610cc457829003601f168201915b50505050508152602001600282018054600181600116156101000203166002900480601f016020809104026020016040519081016040528092919081815260200182805460018160011615610100020316600290048015610d835780601f10610d5857610100808354040283529160200191610d83565b820191906000526020600020905b815481529060010190602001808311610d6657829003601f168201915b505050505081526020016003820160009054906101000a900460ff166002811115610daa57fe5b6002811115610db557fe5b8152505081525050815260200190600101906108c6565b50505050905090565b610ddd612119565b608060405190810160405280868152602001858152602001848152602001836002811115610e0757fe5b81525090506001600088815481101515610e1d57fe5b90600052602060002090600c020160070160006101000a81548160ff02191690836001811115610e4957fe5b021790555080600088815481101515610e5e57fe5b90600052602060002090600c02016008016000820151816000019080519060200190610e8b929190612099565b506020820151816001019080519060200190610ea8929190612099565b506040820151816002019080519060200190610ec5929190612099565b5060608201518160030160006101000a81548160ff02191690836002811115610eea57fe5b02179055509050507fdc2327ebed47cb27c0a589244a5a5e2ad3e061c10d56b5bc86d8ada57789074a868260000151836020015184604001518560600151604051610f39959493929190612710565b60405180910390a150505050505050565b606060008060006060600080600a94506000935084604051908082528060200260200182016040528015610f9857816020015b610f8561214d565b815260200190600190039081610f7d5790505b509250600091505b610fa86119c4565b82101561153257876002811115610fbb57fe5b600083815481101515610fca57fe5b90600052602060002090600c020160030160009054906101000a900460ff166002811115610ff457fe5b14801561100057508484105b156115255760008281548110151561101457fe5b90600052602060002090600c02016101206040519081016040529081600082015481526020016001820160009054906101000a900473ffffffffffffffffffffffffffffffffffffffff1673ffffffffffffffffffffffffffffffffffffffff1673ffffffffffffffffffffffffffffffffffffffff168152602001600282018054600181600116156101000203166002900480601f0160208091040260200160405190810160405280929190818152602001828054600181600116156101000203166002900480156111285780601f106110fd57610100808354040283529160200191611128565b820191906000526020600020905b81548152906001019060200180831161110b57829003601f168201915b505050505081526020016003820160009054906101000a900460ff16600281111561114f57fe5b600281111561115a57fe5b8152602001600482018054600181600116156101000203166002900480601f0160208091040260200160405190810160405280929190818152602001828054600181600116156101000203166002900480156111f75780601f106111cc576101008083540402835291602001916111f7565b820191906000526020600020905b8154815290600101906020018083116111da57829003601f168201915b50505050508152602001600582018054600181600116156101000203166002900480601f0160208091040260200160405190810160405280929190818152602001828054600181600116156101000203166002900480156112995780601f1061126e57610100808354040283529160200191611299565b820191906000526020600020905b81548152906001019060200180831161127c57829003601f168201915b50505050508152602001600682015481526020016007820160009054906101000a900460ff1660018111156112ca57fe5b60018111156112d557fe5b81526020016008820160806040519081016040529081600082018054600181600116156101000203166002900480601f0160208091040260200160405190810160405280929190818152602001828054600181600116156101000203166002900480156113835780601f1061135857610100808354040283529160200191611383565b820191906000526020600020905b81548152906001019060200180831161136657829003601f168201915b50505050508152602001600182018054600181600116156101000203166002900480601f0160208091040260200160405190810160405280929190818152602001828054600181600116156101000203166002900480156114255780601f106113fa57610100808354040283529160200191611425565b820191906000526020600020905b81548152906001019060200180831161140857829003601f168201915b50505050508152602001600282018054600181600116156101000203166002900480601f0160208091040260200160405190810160405280929190818152602001828054600181600116156101000203166002900480156114c75780601f1061149c576101008083540402835291602001916114c7565b820191906000526020600020905b8154815290600101906020018083116114aa57829003601f168201915b505050505081526020016003820160009054906101000a900460ff1660028111156114ee57fe5b60028111156114f957fe5b8152505081525050838581518110151561150f57fe5b9060200190602002018190525083806001019450505b8180600101925050610fa0565b83905082819650965050505050509250929050565b60008181548110151561155657fe5b90600052602060002090600c02016000915090508060000154908060010160009054906101000a900473ffffffffffffffffffffffffffffffffffffffff1690806002018054600181600116156101000203166002900480601f01602080910402602001604051908101604052809291908181526020018280546001816001161561010002031660029004801561162e5780601f106116035761010080835404028352916020019161162e565b820191906000526020600020905b81548152906001019060200180831161161157829003601f168201915b5050505050908060030160009054906101000a900460ff1690806004018054600181600116156101000203166002900480601f0160208091040260200160405190810160405280929190818152602001828054600181600116156101000203166002900480156116df5780601f106116b4576101008083540402835291602001916116df565b820191906000526020600020905b8154815290600101906020018083116116c257829003601f168201915b505050505090806005018054600181600116156101000203166002900480601f01602080910402602001604051908101604052809291908181526020018280546001816001161561010002031660029004801561177d5780601f106117525761010080835404028352916020019161177d565b820191906000526020600020905b81548152906001019060200180831161176057829003601f168201915b5050505050908060060154908060070160009054906101000a900460ff16908060080160806040519081016040529081600082018054600181600116156101000203166002900480601f0160208091040260200160405190810160405280929190818152602001828054600181600116156101000203166002900480156118455780601f1061181a57610100808354040283529160200191611845565b820191906000526020600020905b81548152906001019060200180831161182857829003601f168201915b50505050508152602001600182018054600181600116156101000203166002900480601f0160208091040260200160405190810160405280929190818152602001828054600181600116156101000203166002900480156118e75780601f106118bc576101008083540402835291602001916118e7565b820191906000526020600020905b8154815290600101906020018083116118ca57829003601f168201915b50505050508152602001600282018054600181600116156101000203166002900480601f0160208091040260200160405190810160405280929190818152602001828054600181600116156101000203166002900480156119895780601f1061195e57610100808354040283529160200191611989565b820191906000526020600020905b81548152906001019060200180831161196c57829003601f168201915b505050505081526020016003820160009054906101000a900460ff1660028111156119b057fe5b60028111156119bb57fe5b81525050905089565b60008080549050905090565b6119d861201a565b6000828154811015156119e757fe5b90600052602060002090600c02016101206040519081016040529081600082015481526020016001820160009054906101000a900473ffffffffffffffffffffffffffffffffffffffff1673ffffffffffffffffffffffffffffffffffffffff1673ffffffffffffffffffffffffffffffffffffffff168152602001600282018054600181600116156101000203166002900480601f016020809104026020016040519081016040528092919081815260200182805460018160011615610100020316600290048015611afb5780601f10611ad057610100808354040283529160200191611afb565b820191906000526020600020905b815481529060010190602001808311611ade57829003601f168201915b505050505081526020016003820160009054906101000a900460ff166002811115611b2257fe5b6002811115611b2d57fe5b8152602001600482018054600181600116156101000203166002900480601f016020809104026020016040519081016040528092919081815260200182805460018160011615610100020316600290048015611bca5780601f10611b9f57610100808354040283529160200191611bca565b820191906000526020600020905b815481529060010190602001808311611bad57829003601f168201915b50505050508152602001600582018054600181600116156101000203166002900480601f016020809104026020016040519081016040528092919081815260200182805460018160011615610100020316600290048015611c6c5780601f10611c4157610100808354040283529160200191611c6c565b820191906000526020600020905b815481529060010190602001808311611c4f57829003601f168201915b50505050508152602001600682015481526020016007820160009054906101000a900460ff166001811115611c9d57fe5b6001811115611ca857fe5b81526020016008820160806040519081016040529081600082018054600181600116156101000203166002900480601f016020809104026020016040519081016040528092919081815260200182805460018160011615610100020316600290048015611d565780601f10611d2b57610100808354040283529160200191611d56565b820191906000526020600020905b815481529060010190602001808311611d3957829003601f168201915b50505050508152602001600182018054600181600116156101000203166002900480601f016020809104026020016040519081016040528092919081815260200182805460018160011615610100020316600290048015611df85780601f10611dcd57610100808354040283529160200191611df8565b820191906000526020600020905b815481529060010190602001808311611ddb57829003601f168201915b50505050508152602001600282018054600181600116156101000203166002900480601f016020809104026020016040519081016040528092919081815260200182805460018160011615610100020316600290048015611e9a5780601f10611e6f57610100808354040283529160200191611e9a565b820191906000526020600020905b815481529060010190602001808311611e7d57829003601f168201915b505050505081526020016003820160009054906101000a900460ff166002811115611ec157fe5b6002811115611ecc57fe5b815250508152505090507f1a83c48ff9e69fb80db2dbaa8009e74167d10ca44780c24de039ecf18221f8276001826000015183602001518460400151856060015186608001518760a001518860c001518960e00151604051611f36999897969594939291906127ca565b60405180910390a1611f4782610210565b5050565b828054600181600116156101000203166002900490600052602060002090601f016020900481019282601f10611f845780548555611fc1565b82800160010185558215611fc157600052602060002091601f016020900482015b82811115611fc0578254825591600101919060010190611fa5565b5b509050611fce91906121cc565b5090565b50805460018160011615610100020316600290046000825580601f10611ff85750612017565b601f01602090049060005260206000209081019061201691906121cc565b5b50565b6101806040519081016040528060008152602001600073ffffffffffffffffffffffffffffffffffffffff168152602001606081526020016000600281111561205f57fe5b81526020016060815260200160608152602001600081526020016000600181111561208657fe5b81526020016120936121f1565b81525090565b828054600181600116156101000203166002900490600052602060002090601f016020900481019282601f106120da57805160ff1916838001178555612108565b82800160010185558215612108579182015b828111156121075782518255916020019190600101906120ec565b5b50905061211591906121cc565b5090565b6080604051908101604052806060815260200160608152602001606081526020016000600281111561214757fe5b81525090565b6101806040519081016040528060008152602001600073ffffffffffffffffffffffffffffffffffffffff168152602001606081526020016000600281111561219257fe5b8152602001606081526020016060815260200160008152602001600060018111156121b957fe5b81526020016121c66121f1565b81525090565b6121ee91905b808211156121ea5760008160009055506001016121d2565b5090565b90565b6080604051908101604052806060815260200160608152602001606081526020016000600281111561221f57fe5b81525090565b60006122318235612a25565b905092915050565b60006122458235612a45565b905092915050565b600082601f830112151561226057600080fd5b813561227361226e8261295d565b612930565b9150808252602083016020830185838301111561228f57600080fd5b61229a838284612a9e565b50505092915050565b60006122af8235612a5e565b905092915050565b60008060008060008060c087890312156122d057600080fd5b60006122de89828a01612225565b965050602087013567ffffffffffffffff8111156122fb57600080fd5b61230789828a0161224d565b955050604061231889828a01612239565b945050606087013567ffffffffffffffff81111561233557600080fd5b61234189828a0161224d565b935050608087013567ffffffffffffffff81111561235e57600080fd5b61236a89828a0161224d565b92505060a061237b89828a016122a3565b9150509295509295509295565b6000806040838503121561239b57600080fd5b600083013567ffffffffffffffff8111156123b557600080fd5b6123c18582860161224d565b92505060206123d285828601612239565b9150509250929050565b6000602082840312156123ee57600080fd5b60006123fc848285016122a3565b91505092915050565b60008060008060008060c0878903121561241e57600080fd5b600061242c89828a016122a3565b965050602061243d89828a01612225565b955050604087013567ffffffffffffffff81111561245a57600080fd5b61246689828a0161224d565b945050606087013567ffffffffffffffff81111561248357600080fd5b61248f89828a0161224d565b935050608087013567ffffffffffffffff8111156124ac57600080fd5b6124b889828a0161224d565b92505060a06124c989828a01612239565b9150509295509295509295565b6124df816129b9565b82525050565b60006124f082612996565b8084526020840193508360208202850161250985612989565b60005b848110156125425783830388526125248383516125b6565b925061252f826129ac565b915060208801975060018101905061250c565b508196508694505050505092915050565b61255c81612a68565b82525050565b61256b81612a7a565b82525050565b61257a81612a8c565b82525050565b600061258b826129a1565b80845261259f816020860160208601612aad565b6125a881612ae0565b602085010191505092915050565b6000610120830160008301516125cf6000860182612701565b5060208301516125e260208601826124d6565b50604083015184820360408601526125fa8282612580565b915050606083015161260f6060860182612571565b50608083015184820360808601526126278282612580565b91505060a083015184820360a08601526126418282612580565b91505060c083015161265660c0860182612701565b5060e083015161266960e0860182612553565b506101008301518482036101008601526126838282612690565b9150508091505092915050565b600060808301600083015184820360008601526126ad8282612580565b915050602083015184820360208601526126c78282612580565b915050604083015184820360408601526126e18282612580565b91505060608301516126f66060860182612571565b508091505092915050565b61270a81612a1b565b82525050565b600060a08201905061272560008301886124d6565b81810360208301526127378187612580565b9050818103604083015261274b8186612580565b9050818103606083015261275f8185612580565b905061276e6080830184612571565b9695505050505050565b6000602082019050818103600083015261279281846124e5565b905092915050565b600060408201905081810360008301526127b481856124e5565b90506127c36020830184612701565b9392505050565b6000610120820190506127e0600083018c612562565b6127ed602083018b612701565b6127fa604083018a6124d6565b818103606083015261280c8189612580565b905061281b6080830188612571565b81810360a083015261282d8187612580565b905081810360c08301526128418186612580565b905061285060e0830185612701565b61285e610100830184612553565b9a9950505050505050505050565b60006020820190506128816000830184612701565b92915050565b60006101208201905061289d600083018c612701565b6128aa602083018b6124d6565b81810360408301526128bc818a612580565b90506128cb6060830189612571565b81810360808301526128dd8188612580565b905081810360a08301526128f18187612580565b905061290060c0830186612701565b61290d60e0830185612553565b8181036101008301526129208184612690565b90509a9950505050505050505050565b6000604051905081810181811067ffffffffffffffff8211171561295357600080fd5b8060405250919050565b600067ffffffffffffffff82111561297457600080fd5b601f19601f8301169050602081019050919050565b6000602082019050919050565b600081519050919050565b600081519050919050565b6000602082019050919050565b600073ffffffffffffffffffffffffffffffffffffffff82169050919050565b60006002821015156129e757fe5b819050919050565b60006002821015156129fd57fe5b819050919050565b6000600382101515612a1357fe5b819050919050565b6000819050919050565b600073ffffffffffffffffffffffffffffffffffffffff82169050919050565b6000600382101515612a5657600080fd5b819050919050565b6000819050919050565b6000612a73826129d9565b9050919050565b6000612a85826129ef565b9050919050565b6000612a9782612a05565b9050919050565b82818337600083830152505050565b60005b83811015612acb578082015181840152602081019050612ab0565b83811115612ada576000848401525b50505050565b6000601f19601f83011690509190505600a265627a7a7230582066316d6477541f9f1c14c71a3d0f51698d3e5e36ac843bccf41e8f5fd4c2b2bf6c6578706572696d656e74616cf50037",
  "source": "pragma experimental ABIEncoderV2;\n\n// contract.registerDrive('0x5110E08969264C603C62a9805687Dd065B7c4789', '0829527843', 0, 'Honda Alpha', \"Thanh Da\", 25000)\n\ncontract RideSharing {\n    function RideSharing() {\n\n    }\n\n    enum VEHICLE_TYPE {\n        MOTORCYCLE, FOUR_SEAT_CAR, SEVEN_SEAT_CAR\n    }\n\n    enum DRIVER_STATE {\n        FREE, IS_PROCESSING\n    }\n\n    enum UPDATE_DRIVER_MESSAGE{\n        ADD_DRIVER, REMOVE_DRIVER\n    }\n\n    // DRIVER\n    Driver[] public listDrivers;\n\n    function driversCount() public constant returns (uint count){\n        return listDrivers.length;\n    }\n\n    function getListDrivers() public view returns (Driver[]) {\n        return listDrivers;\n    }\n\n    function removeDriverByIndex (uint index) {\n        listDrivers[index] = listDrivers[listDrivers.length - 1];\n        listDrivers[index].driverIndex = index;\n        delete listDrivers[listDrivers.length - 1];\n    }\n\n    function findSuitableDrivers(string _riderPosition, VEHICLE_TYPE _riderSelectedVechcle) public view returns(Driver[] resultList, uint resultCount){\n        uint MAX_DRIVERS = 10;\n        uint suiIndex = 0;\n        Driver[] memory  suitableDrivers  = new Driver[](MAX_DRIVERS);\n        for (uint index = 0; index< driversCount(); index++){\n            if (listDrivers[index].ownedVehicle == _riderSelectedVechcle && suiIndex < MAX_DRIVERS){\n                suitableDrivers[suiIndex] = listDrivers[index];\n                suiIndex++;\n            }\n        }\n        uint count = suiIndex;\n        return (suitableDrivers, count);\n    }\n\n    struct Driver {\n        uint driverIndex;\n        address driverAddress;\n        string phoneNumber;\n        VEHICLE_TYPE ownedVehicle;\n        string detailVehicle;\n        string position;\n        uint pricePerKm;\n        DRIVER_STATE state;\n        Rider rider;\n    }\n\n    function registerDrive(\n        address _driverAddress,\n        string _phoneNumber,\n        VEHICLE_TYPE _ownedVehicle,\n        string _detailVehicle,\n        string _position,\n        uint _pricePerKm) {\n\n        Driver memory driver = Driver(\n            listDrivers.length,\n            _driverAddress,\n            _phoneNumber,\n            _ownedVehicle,\n            _detailVehicle,\n            _position,\n            _pricePerKm,\n            DRIVER_STATE.FREE,\n            Rider('', '', '', VEHICLE_TYPE.MOTORCYCLE)\n        );\n\n        listDrivers.push(driver);\n        emit UpdateListDrivers(UPDATE_DRIVER_MESSAGE.ADD_DRIVER,\n            driver.driverIndex,\n            driver.driverAddress,\n            driver.phoneNumber,\n            driver.ownedVehicle,\n            driver.detailVehicle,\n            driver.position,\n            driver.pricePerKm,\n            driver.state\n        );\n    }\n\n    // RIDER\n    struct Rider {\n        string riderAddress;\n        string phoneNumber;\n        string position;\n        VEHICLE_TYPE selectedVehicle;\n    }\n\n    function processRide(uint _driverIndex, address _driverAddress, string _riderAddress, string _riderPhoneNumber, string _riderPosition, VEHICLE_TYPE _riderSelectedVechcle) public {\n        Rider memory rider = Rider(_riderAddress, _riderPhoneNumber, _riderPosition, _riderSelectedVechcle);\n        listDrivers[_driverIndex].state = DRIVER_STATE.IS_PROCESSING;\n        listDrivers[_driverIndex].rider = rider;\n        emit NewRideIsProcessing(_driverAddress, rider.riderAddress, rider.phoneNumber, rider.position, rider.selectedVehicle);\n    }\n\n    function confirmRide(uint _index) public {\n        Driver memory driver = listDrivers[_index];\n        emit UpdateListDrivers(UPDATE_DRIVER_MESSAGE.REMOVE_DRIVER,\n            driver.driverIndex,\n            driver.driverAddress,\n            driver.phoneNumber,\n            driver.ownedVehicle,\n            driver.detailVehicle,\n            driver.position,\n            driver.pricePerKm,\n            driver.state\n        );\n        removeDriverByIndex(_index);\n    }\n\n    event UpdateListDrivers (\n        UPDATE_DRIVER_MESSAGE message,\n        uint driverIndex,\n        address driverAddress,\n        string phoneNumber,\n        VEHICLE_TYPE ownedVehicle,\n        string detailVehicle,\n        string position,\n        uint pricePerKm,\n        DRIVER_STATE state\n    );\n\n    event NewRideIsProcessing (\n        address driverAddress,\n        string riderAddress,\n        string phoneNumber,\n        string position,\n        VEHICLE_TYPE selectedVehicle\n    );\n}\n\n",
  "sourcePath": "/Users/khanhhongtranle/Desktop/Study/bear2bear RideSharing/bear2bear/contracts/RideSharing.sol",
  "compiler": {
    "name": "solc",
    "version": "0.4.24+commit.e67f0147.Emscripten.clang"
  },
  "schemaVersion": "3.4.1",
  "updatedAt": "2021-06-04T07:51:39.407Z",
  "networkType": "ethereum",
  "devdoc": {
    "methods": {}
  },
  "userdoc": {
    "methods": {}
  }
}